{
  "contractName": "TokenAdmin",
  "abi": [
    {
      "constant": true,
      "inputs": [],
      "name": "name",
      "outputs": [
        {
          "name": "",
          "type": "string"
        }
      ],
      "payable": false,
      "stateMutability": "view",
      "type": "function"
    },
    {
      "constant": false,
      "inputs": [
        {
          "name": "_spender",
          "type": "address"
        },
        {
          "name": "_value",
          "type": "uint256"
        }
      ],
      "name": "approve",
      "outputs": [
        {
          "name": "",
          "type": "bool"
        }
      ],
      "payable": false,
      "stateMutability": "nonpayable",
      "type": "function"
    },
    {
      "constant": true,
      "inputs": [
        {
          "name": "_operator",
          "type": "address"
        },
        {
          "name": "_role",
          "type": "string"
        }
      ],
      "name": "checkRole",
      "outputs": [],
      "payable": false,
      "stateMutability": "view",
      "type": "function"
    },
    {
      "constant": true,
      "inputs": [
        {
          "name": "",
          "type": "uint256"
        }
      ],
      "name": "bearerAddresses",
      "outputs": [
        {
          "name": "",
          "type": "address"
        }
      ],
      "payable": false,
      "stateMutability": "view",
      "type": "function"
    },
    {
      "constant": true,
      "inputs": [],
      "name": "totalSupply",
      "outputs": [
        {
          "name": "",
          "type": "uint256"
        }
      ],
      "payable": false,
      "stateMutability": "view",
      "type": "function"
    },
    {
      "constant": true,
      "inputs": [],
      "name": "ROLE_WHITELISTED",
      "outputs": [
        {
          "name": "",
          "type": "string"
        }
      ],
      "payable": false,
      "stateMutability": "view",
      "type": "function"
    },
    {
      "constant": true,
      "inputs": [
        {
          "name": "_operator",
          "type": "address"
        },
        {
          "name": "_role",
          "type": "string"
        }
      ],
      "name": "hasRole",
      "outputs": [
        {
          "name": "",
          "type": "bool"
        }
      ],
      "payable": false,
      "stateMutability": "view",
      "type": "function"
    },
    {
      "constant": false,
      "inputs": [
        {
          "name": "_from",
          "type": "address"
        },
        {
          "name": "_to",
          "type": "address"
        },
        {
          "name": "_value",
          "type": "uint256"
        }
      ],
      "name": "transferFrom",
      "outputs": [
        {
          "name": "",
          "type": "bool"
        }
      ],
      "payable": false,
      "stateMutability": "nonpayable",
      "type": "function"
    },
    {
      "constant": false,
      "inputs": [
        {
          "name": "_operators",
          "type": "address[]"
        }
      ],
      "name": "removeAddressesFromWhitelist",
      "outputs": [],
      "payable": false,
      "stateMutability": "nonpayable",
      "type": "function"
    },
    {
      "constant": false,
      "inputs": [
        {
          "name": "_operator",
          "type": "address"
        }
      ],
      "name": "removeAddressFromWhitelist",
      "outputs": [],
      "payable": false,
      "stateMutability": "nonpayable",
      "type": "function"
    },
    {
      "constant": true,
      "inputs": [],
      "name": "initialTokenTransfer",
      "outputs": [
        {
          "name": "",
          "type": "uint256"
        }
      ],
      "payable": false,
      "stateMutability": "view",
      "type": "function"
    },
    {
      "constant": true,
      "inputs": [],
      "name": "decimals",
      "outputs": [
        {
          "name": "",
          "type": "uint8"
        }
      ],
      "payable": false,
      "stateMutability": "view",
      "type": "function"
    },
    {
      "constant": false,
      "inputs": [
        {
          "name": "_spender",
          "type": "address"
        },
        {
          "name": "_subtractedValue",
          "type": "uint256"
        }
      ],
      "name": "decreaseApproval",
      "outputs": [
        {
          "name": "",
          "type": "bool"
        }
      ],
      "payable": false,
      "stateMutability": "nonpayable",
      "type": "function"
    },
    {
      "constant": false,
      "inputs": [
        {
          "name": "name",
          "type": "string"
        },
        {
          "name": "symbol",
          "type": "string"
        },
        {
          "name": "decimals",
          "type": "uint8"
        },
        {
          "name": "totalSupply",
          "type": "uint256"
        }
      ],
      "name": "StandardToken",
      "outputs": [],
      "payable": false,
      "stateMutability": "nonpayable",
      "type": "function"
    },
    {
      "constant": true,
      "inputs": [
        {
          "name": "_owner",
          "type": "address"
        }
      ],
      "name": "balanceOf",
      "outputs": [
        {
          "name": "balance",
          "type": "uint256"
        }
      ],
      "payable": false,
      "stateMutability": "view",
      "type": "function"
    },
    {
      "constant": false,
      "inputs": [],
      "name": "renounceOwnership",
      "outputs": [],
      "payable": false,
      "stateMutability": "nonpayable",
      "type": "function"
    },
    {
      "constant": false,
      "inputs": [
        {
          "name": "_operator",
          "type": "address"
        }
      ],
      "name": "addAddressToWhitelist",
      "outputs": [],
      "payable": false,
      "stateMutability": "nonpayable",
      "type": "function"
    },
    {
      "constant": true,
      "inputs": [],
      "name": "owner",
      "outputs": [
        {
          "name": "",
          "type": "address"
        }
      ],
      "payable": false,
      "stateMutability": "view",
      "type": "function"
    },
    {
      "constant": true,
      "inputs": [],
      "name": "symbol",
      "outputs": [
        {
          "name": "",
          "type": "string"
        }
      ],
      "payable": false,
      "stateMutability": "view",
      "type": "function"
    },
    {
      "constant": true,
      "inputs": [
        {
          "name": "_operator",
          "type": "address"
        }
      ],
      "name": "whitelist",
      "outputs": [
        {
          "name": "",
          "type": "bool"
        }
      ],
      "payable": false,
      "stateMutability": "view",
      "type": "function"
    },
    {
      "constant": false,
      "inputs": [
        {
          "name": "_to",
          "type": "address"
        },
        {
          "name": "_value",
          "type": "uint256"
        }
      ],
      "name": "transfer",
      "outputs": [
        {
          "name": "",
          "type": "bool"
        }
      ],
      "payable": false,
      "stateMutability": "nonpayable",
      "type": "function"
    },
    {
      "constant": true,
      "inputs": [],
      "name": "queryPrice",
      "outputs": [
        {
          "name": "",
          "type": "uint256"
        }
      ],
      "payable": false,
      "stateMutability": "view",
      "type": "function"
    },
    {
      "constant": false,
      "inputs": [
        {
          "name": "_spender",
          "type": "address"
        },
        {
          "name": "_addedValue",
          "type": "uint256"
        }
      ],
      "name": "increaseApproval",
      "outputs": [
        {
          "name": "",
          "type": "bool"
        }
      ],
      "payable": false,
      "stateMutability": "nonpayable",
      "type": "function"
    },
    {
      "constant": true,
      "inputs": [
        {
          "name": "_owner",
          "type": "address"
        },
        {
          "name": "_spender",
          "type": "address"
        }
      ],
      "name": "allowance",
      "outputs": [
        {
          "name": "",
          "type": "uint256"
        }
      ],
      "payable": false,
      "stateMutability": "view",
      "type": "function"
    },
    {
      "constant": false,
      "inputs": [
        {
          "name": "_operators",
          "type": "address[]"
        }
      ],
      "name": "addAddressesToWhitelist",
      "outputs": [],
      "payable": false,
      "stateMutability": "nonpayable",
      "type": "function"
    },
    {
      "constant": false,
      "inputs": [
        {
          "name": "_newOwner",
          "type": "address"
        }
      ],
      "name": "transferOwnership",
      "outputs": [],
      "payable": false,
      "stateMutability": "nonpayable",
      "type": "function"
    },
    {
      "anonymous": false,
      "inputs": [
        {
          "indexed": false,
          "name": "message",
          "type": "string"
        },
        {
          "indexed": false,
          "name": "_newRCE",
          "type": "address"
        }
      ],
      "name": "addedNewRCE",
      "type": "event"
    },
    {
      "anonymous": false,
      "inputs": [
        {
          "indexed": false,
          "name": "message",
          "type": "string"
        },
        {
          "indexed": false,
          "name": "oldValue",
          "type": "uint256"
        },
        {
          "indexed": false,
          "name": "newValue",
          "type": "uint256"
        }
      ],
      "name": "modifiedInitialTokenTransfer",
      "type": "event"
    },
    {
      "anonymous": false,
      "inputs": [
        {
          "indexed": false,
          "name": "message",
          "type": "string"
        },
        {
          "indexed": false,
          "name": "oldValue",
          "type": "uint256"
        },
        {
          "indexed": false,
          "name": "newValue",
          "type": "uint256"
        }
      ],
      "name": "modifiedQueryPrice",
      "type": "event"
    },
    {
      "anonymous": false,
      "inputs": [
        {
          "indexed": true,
          "name": "from",
          "type": "address"
        },
        {
          "indexed": true,
          "name": "to",
          "type": "address"
        },
        {
          "indexed": false,
          "name": "value",
          "type": "uint256"
        }
      ],
      "name": "Transfer",
      "type": "event"
    },
    {
      "anonymous": false,
      "inputs": [
        {
          "indexed": true,
          "name": "owner",
          "type": "address"
        },
        {
          "indexed": true,
          "name": "spender",
          "type": "address"
        },
        {
          "indexed": false,
          "name": "value",
          "type": "uint256"
        }
      ],
      "name": "Approval",
      "type": "event"
    },
    {
      "anonymous": false,
      "inputs": [
        {
          "indexed": true,
          "name": "operator",
          "type": "address"
        },
        {
          "indexed": false,
          "name": "role",
          "type": "string"
        }
      ],
      "name": "RoleAdded",
      "type": "event"
    },
    {
      "anonymous": false,
      "inputs": [
        {
          "indexed": true,
          "name": "operator",
          "type": "address"
        },
        {
          "indexed": false,
          "name": "role",
          "type": "string"
        }
      ],
      "name": "RoleRemoved",
      "type": "event"
    },
    {
      "anonymous": false,
      "inputs": [
        {
          "indexed": true,
          "name": "previousOwner",
          "type": "address"
        }
      ],
      "name": "OwnershipRenounced",
      "type": "event"
    },
    {
      "anonymous": false,
      "inputs": [
        {
          "indexed": true,
          "name": "previousOwner",
          "type": "address"
        },
        {
          "indexed": true,
          "name": "newOwner",
          "type": "address"
        }
      ],
      "name": "OwnershipTransferred",
      "type": "event"
    },
    {
      "constant": false,
      "inputs": [
        {
          "name": "_newRCE",
          "type": "address"
        }
      ],
      "name": "includeNewRCE",
      "outputs": [],
      "payable": false,
      "stateMutability": "nonpayable",
      "type": "function"
    },
    {
      "constant": false,
      "inputs": [
        {
          "name": "_newValue",
          "type": "uint256"
        }
      ],
      "name": "modifyInitialTokenTransfer",
      "outputs": [],
      "payable": false,
      "stateMutability": "nonpayable",
      "type": "function"
    },
    {
      "constant": false,
      "inputs": [
        {
          "name": "_newValue",
          "type": "uint256"
        }
      ],
      "name": "modifyQueryPrice",
      "outputs": [],
      "payable": false,
      "stateMutability": "nonpayable",
      "type": "function"
    }
  ],
  "bytecode": "0x608060405260006002556064600a556001600b556040805190810160405280600881526020017f526365546f6b656e000000000000000000000000000000000000000000000000815250600c90805190602001906200006092919062000118565b506040805190810160405280600381526020017f5243450000000000000000000000000000000000000000000000000000000000815250600d9080519060200190620000ae92919062000118565b506012600e60006101000a81548160ff021916908360ff160217905550620f4240600f55336000806101000a81548173ffffffffffffffffffffffffffffffffffffffff021916908373ffffffffffffffffffffffffffffffffffffffff160217905550620001c7565b828054600181600116156101000203166002900490600052602060002090601f016020900481019282601f106200015b57805160ff19168380011785556200018c565b828001600101855582156200018c579182015b828111156200018b5782518255916020019190600101906200016e565b5b5090506200019b91906200019f565b5090565b620001c491905b80821115620001c0576000816000905550600101620001a6565b5090565b90565b6128ab80620001d76000396000f300608060405260043610610175576000357c0100000000000000000000000000000000000000000000000000000000900463ffffffff16806306fdde031461017a578063095ea7b31461020a5780630988ca8c1461026f57806314d2787c146102f857806318160ddd1461036557806318b919e914610390578063217fe6c61461042057806323b872dd146104c157806324953eaa14610546578063286dd3f5146105ac5780632c287677146105ef578063313ce5671461061a578063661884631461064b57806367302571146106b05780636d8d16b9146106dd57806370a08231146107a3578063715018a6146107fa578063727f1535146108115780637b9417c81461083e5780638da5cb5b1461088157806395d89b41146108d8578063961f66e8146109685780639b19251a146109ab578063a9059cbb14610a06578063b0667cf814610a6b578063d73dd62314610a96578063dd62ed3e14610afb578063e2ec6ec314610b72578063f2fde38b14610bd8575b600080fd5b34801561018657600080fd5b5061018f610c1b565b6040518080602001828103825283818151815260200191508051906020019080838360005b838110156101cf5780820151818401526020810190506101b4565b50505050905090810190601f1680156101fc5780820380516001836020036101000a031916815260200191505b509250505060405180910390f35b34801561021657600080fd5b50610255600480360381019080803573ffffffffffffffffffffffffffffffffffffffff16906020019092919080359060200190929190505050610cbd565b604051808215151515815260200191505060405180910390f35b34801561027b57600080fd5b506102f6600480360381019080803573ffffffffffffffffffffffffffffffffffffffff169060200190929190803590602001908201803590602001908080601f0160208091040260200160405190810160405280939291908181526020018383808284378201915050505050509192919290505050610daf565b005b34801561030457600080fd5b5061032360048036038101908080359060200190929190505050610e30565b604051808273ffffffffffffffffffffffffffffffffffffffff1673ffffffffffffffffffffffffffffffffffffffff16815260200191505060405180910390f35b34801561037157600080fd5b5061037a610e63565b6040518082815260200191505060405180910390f35b34801561039c57600080fd5b506103a5610e6d565b6040518080602001828103825283818151815260200191508051906020019080838360005b838110156103e55780820151818401526020810190506103ca565b50505050905090810190601f1680156104125780820380516001836020036101000a031916815260200191505b509250505060405180910390f35b34801561042c57600080fd5b506104a7600480360381019080803573ffffffffffffffffffffffffffffffffffffffff169060200190929190803590602001908201803590602001908080601f0160208091040260200160405190810160405280939291908181526020018383808284378201915050505050509192919290505050610ea6565b604051808215151515815260200191505060405180910390f35b3480156104cd57600080fd5b5061052c600480360381019080803573ffffffffffffffffffffffffffffffffffffffff169060200190929190803573ffffffffffffffffffffffffffffffffffffffff16906020019092919080359060200190929190505050610f2d565b604051808215151515815260200191505060405180910390f35b34801561055257600080fd5b506105aa600480360381019080803590602001908201803590602001908080602002602001604051908101604052809392919081815260200183836020028082843782019150505050505091929192905050506112d1565b005b3480156105b857600080fd5b506105ed600480360381019080803573ffffffffffffffffffffffffffffffffffffffff16906020019092919050505061136d565b005b3480156105fb57600080fd5b5061060461140a565b6040518082815260200191505060405180910390f35b34801561062657600080fd5b5061062f611410565b604051808260ff1660ff16815260200191505060405180910390f35b34801561065757600080fd5b50610696600480360381019080803573ffffffffffffffffffffffffffffffffffffffff16906020019092919080359060200190929190505050611427565b604051808215151515815260200191505060405180910390f35b3480156106bc57600080fd5b506106db600480360381019080803590602001909291905050506116af565b005b3480156106e957600080fd5b506107a1600480360381019080803590602001908201803590602001908080601f0160208091040260200160405190810160405280939291908181526020018383808284378201915050505050509192919290803590602001908201803590602001908080601f0160208091040260200160405190810160405280939291908181526020018383808284378201915050505050509192919290803560ff16906020019092919080359060200190929190505050611794565b005b3480156107af57600080fd5b506107e4600480360381019080803573ffffffffffffffffffffffffffffffffffffffff16906020019092919050505061182e565b6040518082815260200191505060405180910390f35b34801561080657600080fd5b5061080f611877565b005b34801561081d57600080fd5b5061083c60048036038101908080359060200190929190505050611979565b005b34801561084a57600080fd5b5061087f600480360381019080803573ffffffffffffffffffffffffffffffffffffffff169060200190929190505050611a5e565b005b34801561088d57600080fd5b50610896611b61565b604051808273ffffffffffffffffffffffffffffffffffffffff1673ffffffffffffffffffffffffffffffffffffffff16815260200191505060405180910390f35b3480156108e457600080fd5b506108ed611b86565b6040518080602001828103825283818151815260200191508051906020019080838360005b8381101561092d578082015181840152602081019050610912565b50505050905090810190601f16801561095a5780820380516001836020036101000a031916815260200191505b509250505060405180910390f35b34801561097457600080fd5b506109a9600480360381019080803573ffffffffffffffffffffffffffffffffffffffff169060200190929190505050611c28565b005b3480156109b757600080fd5b506109ec600480360381019080803573ffffffffffffffffffffffffffffffffffffffff169060200190929190505050611d38565b604051808215151515815260200191505060405180910390f35b348015610a1257600080fd5b50610a51600480360381019080803573ffffffffffffffffffffffffffffffffffffffff16906020019092919080359060200190929190505050611d80565b604051808215151515815260200191505060405180910390f35b348015610a7757600080fd5b50610a80611f92565b6040518082815260200191505060405180910390f35b348015610aa257600080fd5b50610ae1600480360381019080803573ffffffffffffffffffffffffffffffffffffffff16906020019092919080359060200190929190505050611f98565b604051808215151515815260200191505060405180910390f35b348015610b0757600080fd5b50610b5c600480360381019080803573ffffffffffffffffffffffffffffffffffffffff169060200190929190803573ffffffffffffffffffffffffffffffffffffffff16906020019092919050505061218b565b6040518082815260200191505060405180910390f35b348015610b7e57600080fd5b50610bd660048036038101908080359060200190820180359060200190808060200260200160405190810160405280939291908181526020018383602002808284378201915050505050509192919290505050612212565b005b348015610be457600080fd5b50610c19600480360381019080803573ffffffffffffffffffffffffffffffffffffffff1690602001909291905050506122ae565b005b606060048054600181600116156101000203166002900480601f016020809104026020016040519081016040528092919081815260200182805460018160011615610100020316600290048015610cb35780601f10610c8857610100808354040283529160200191610cb3565b820191906000526020600020905b815481529060010190602001808311610c9657829003601f168201915b5050505050905090565b600081600960003373ffffffffffffffffffffffffffffffffffffffff1673ffffffffffffffffffffffffffffffffffffffff16815260200190815260200160002060008573ffffffffffffffffffffffffffffffffffffffff1673ffffffffffffffffffffffffffffffffffffffff168152602001908152602001600020819055508273ffffffffffffffffffffffffffffffffffffffff163373ffffffffffffffffffffffffffffffffffffffff167f8c5be1e5ebec7d5bd14f71427d1e84f3dd0314c0f7b2291e5b200ac8c7c3b925846040518082815260200191505060405180910390a36001905092915050565b610e2c826001836040518082805190602001908083835b602083101515610deb5780518252602082019150602081019050602083039250610dc6565b6001836020036101000a038019825116818451168082178552505050505050905001915050908152602001604051809103902061231590919063ffffffff16565b5050565b60036020528060005260406000206000915054906101000a900473ffffffffffffffffffffffffffffffffffffffff1681565b6000600754905090565b6040805190810160405280600981526020017f77686974656c697374000000000000000000000000000000000000000000000081525081565b6000610f25836001846040518082805190602001908083835b602083101515610ee45780518252602082019150602081019050602083039250610ebf565b6001836020036101000a038019825116818451168082178552505050505050905001915050908152602001604051809103902061232e90919063ffffffff16565b905092915050565b60008073ffffffffffffffffffffffffffffffffffffffff168373ffffffffffffffffffffffffffffffffffffffff1614151515610f6a57600080fd5b600860008573ffffffffffffffffffffffffffffffffffffffff1673ffffffffffffffffffffffffffffffffffffffff168152602001908152602001600020548211151515610fb857600080fd5b600960008573ffffffffffffffffffffffffffffffffffffffff1673ffffffffffffffffffffffffffffffffffffffff16815260200190815260200160002060003373ffffffffffffffffffffffffffffffffffffffff1673ffffffffffffffffffffffffffffffffffffffff16815260200190815260200160002054821115151561104357600080fd5b61108c600860008673ffffffffffffffffffffffffffffffffffffffff1673ffffffffffffffffffffffffffffffffffffffff1681526020019081526020016000205483612387565b600860008673ffffffffffffffffffffffffffffffffffffffff1673ffffffffffffffffffffffffffffffffffffffff16815260200190815260200160002081905550611118600860008573ffffffffffffffffffffffffffffffffffffffff1673ffffffffffffffffffffffffffffffffffffffff16815260200190815260200160002054836123a0565b600860008573ffffffffffffffffffffffffffffffffffffffff1673ffffffffffffffffffffffffffffffffffffffff168152602001908152602001600020819055506111e1600960008673ffffffffffffffffffffffffffffffffffffffff1673ffffffffffffffffffffffffffffffffffffffff16815260200190815260200160002060003373ffffffffffffffffffffffffffffffffffffffff1673ffffffffffffffffffffffffffffffffffffffff1681526020019081526020016000205483612387565b600960008673ffffffffffffffffffffffffffffffffffffffff1673ffffffffffffffffffffffffffffffffffffffff16815260200190815260200160002060003373ffffffffffffffffffffffffffffffffffffffff1673ffffffffffffffffffffffffffffffffffffffff168152602001908152602001600020819055508273ffffffffffffffffffffffffffffffffffffffff168473ffffffffffffffffffffffffffffffffffffffff167fddf252ad1be2c89b69c2b068fc378daa952ba7f163c4a11628f55a4df523b3ef846040518082815260200191505060405180910390a3600190509392505050565b60008060009054906101000a900473ffffffffffffffffffffffffffffffffffffffff1673ffffffffffffffffffffffffffffffffffffffff163373ffffffffffffffffffffffffffffffffffffffff1614151561132e57600080fd5b600090505b81518110156113695761135c828281518110151561134d57fe5b9060200190602002015161136d565b8080600101915050611333565b5050565b6000809054906101000a900473ffffffffffffffffffffffffffffffffffffffff1673ffffffffffffffffffffffffffffffffffffffff163373ffffffffffffffffffffffffffffffffffffffff161415156113c857600080fd5b611407816040805190810160405280600981526020017f77686974656c69737400000000000000000000000000000000000000000000008152506123bc565b50565b600a5481565b6000600660009054906101000a900460ff16905090565b600080600960003373ffffffffffffffffffffffffffffffffffffffff1673ffffffffffffffffffffffffffffffffffffffff16815260200190815260200160002060008573ffffffffffffffffffffffffffffffffffffffff1673ffffffffffffffffffffffffffffffffffffffff16815260200190815260200160002054905080831115611538576000600960003373ffffffffffffffffffffffffffffffffffffffff1673ffffffffffffffffffffffffffffffffffffffff16815260200190815260200160002060008673ffffffffffffffffffffffffffffffffffffffff1673ffffffffffffffffffffffffffffffffffffffff168152602001908152602001600020819055506115c3565b6115428184612387565b600960003373ffffffffffffffffffffffffffffffffffffffff1673ffffffffffffffffffffffffffffffffffffffff16815260200190815260200160002060008673ffffffffffffffffffffffffffffffffffffffff1673ffffffffffffffffffffffffffffffffffffffff168152602001908152602001600020819055505b8373ffffffffffffffffffffffffffffffffffffffff163373ffffffffffffffffffffffffffffffffffffffff167f8c5be1e5ebec7d5bd14f71427d1e84f3dd0314c0f7b2291e5b200ac8c7c3b925600960003373ffffffffffffffffffffffffffffffffffffffff1673ffffffffffffffffffffffffffffffffffffffff16815260200190815260200160002060008873ffffffffffffffffffffffffffffffffffffffff1673ffffffffffffffffffffffffffffffffffffffff168152602001908152602001600020546040518082815260200191505060405180910390a3600191505092915050565b60008060009054906101000a900473ffffffffffffffffffffffffffffffffffffffff1673ffffffffffffffffffffffffffffffffffffffff163373ffffffffffffffffffffffffffffffffffffffff1614151561170c57600080fd5b600b54905081600b819055507f7b12003fc7148d33efefcfa22031e92795e7991b0be4e82d81b32eb98741bd7581836040518080602001848152602001838152602001828103825260148152602001807f4d6f646966696564207175657279207072696365000000000000000000000000815250602001935050505060405180910390a15050565b82600590805190602001906117aa9291906127da565b5083600490805190602001906117c19291906127da565b5081600660006101000a81548160ff021916908360ff1602179055508060078190555080600860003373ffffffffffffffffffffffffffffffffffffffff1673ffffffffffffffffffffffffffffffffffffffff1681526020019081526020016000208190555050505050565b6000600860008373ffffffffffffffffffffffffffffffffffffffff1673ffffffffffffffffffffffffffffffffffffffff168152602001908152602001600020549050919050565b6000809054906101000a900473ffffffffffffffffffffffffffffffffffffffff1673ffffffffffffffffffffffffffffffffffffffff163373ffffffffffffffffffffffffffffffffffffffff161415156118d257600080fd5b6000809054906101000a900473ffffffffffffffffffffffffffffffffffffffff1673ffffffffffffffffffffffffffffffffffffffff167ff8df31144d9c2f0f6b59d69b8b98abd5459d07f2742c4df920b25aae33c6482060405160405180910390a260008060006101000a81548173ffffffffffffffffffffffffffffffffffffffff021916908373ffffffffffffffffffffffffffffffffffffffff160217905550565b60008060009054906101000a900473ffffffffffffffffffffffffffffffffffffffff1673ffffffffffffffffffffffffffffffffffffffff163373ffffffffffffffffffffffffffffffffffffffff161415156119d657600080fd5b600a54905081600a819055507f8caf876083406191b07ec70925bec98178dae425fbab997900dfc4aa1721aaa6818360405180806020018481526020018381526020018281038252601f8152602001807f4d6f64696669656420696e697469616c20746f6b656e207472616e7366657200815250602001935050505060405180910390a15050565b6000809054906101000a900473ffffffffffffffffffffffffffffffffffffffff1673ffffffffffffffffffffffffffffffffffffffff163373ffffffffffffffffffffffffffffffffffffffff16141515611ab957600080fd5b611af8816040805190810160405280600981526020017f77686974656c69737400000000000000000000000000000000000000000000008152506124f0565b8060036000600254815260200190815260200160002060006101000a81548173ffffffffffffffffffffffffffffffffffffffff021916908373ffffffffffffffffffffffffffffffffffffffff16021790555060026000815480929190600101919050555050565b6000809054906101000a900473ffffffffffffffffffffffffffffffffffffffff1681565b606060058054600181600116156101000203166002900480601f016020809104026020016040519081016040528092919081815260200182805460018160011615610100020316600290048015611c1e5780601f10611bf357610100808354040283529160200191611c1e565b820191906000526020600020905b815481529060010190602001808311611c0157829003601f168201915b5050505050905090565b6000809054906101000a900473ffffffffffffffffffffffffffffffffffffffff1673ffffffffffffffffffffffffffffffffffffffff163373ffffffffffffffffffffffffffffffffffffffff16141515611c8357600080fd5b611c8c81611a5e565b611c9881600a54611d80565b507fcba9f653be76dbffae91891267a147c7850bfba36e13f962fa598a2183e283738160405180806020018373ffffffffffffffffffffffffffffffffffffffff1673ffffffffffffffffffffffffffffffffffffffff1681526020018281038252600d8152602001807f4164646564206e657720524345000000000000000000000000000000000000008152506020019250505060405180910390a150565b6000611d79826040805190810160405280600981526020017f77686974656c6973740000000000000000000000000000000000000000000000815250610ea6565b9050919050565b60008073ffffffffffffffffffffffffffffffffffffffff168373ffffffffffffffffffffffffffffffffffffffff1614151515611dbd57600080fd5b600860003373ffffffffffffffffffffffffffffffffffffffff1673ffffffffffffffffffffffffffffffffffffffff168152602001908152602001600020548211151515611e0b57600080fd5b611e54600860003373ffffffffffffffffffffffffffffffffffffffff1673ffffffffffffffffffffffffffffffffffffffff1681526020019081526020016000205483612387565b600860003373ffffffffffffffffffffffffffffffffffffffff1673ffffffffffffffffffffffffffffffffffffffff16815260200190815260200160002081905550611ee0600860008573ffffffffffffffffffffffffffffffffffffffff1673ffffffffffffffffffffffffffffffffffffffff16815260200190815260200160002054836123a0565b600860008573ffffffffffffffffffffffffffffffffffffffff1673ffffffffffffffffffffffffffffffffffffffff168152602001908152602001600020819055508273ffffffffffffffffffffffffffffffffffffffff163373ffffffffffffffffffffffffffffffffffffffff167fddf252ad1be2c89b69c2b068fc378daa952ba7f163c4a11628f55a4df523b3ef846040518082815260200191505060405180910390a36001905092915050565b600b5481565b6000612020600960003373ffffffffffffffffffffffffffffffffffffffff1673ffffffffffffffffffffffffffffffffffffffff16815260200190815260200160002060008573ffffffffffffffffffffffffffffffffffffffff1673ffffffffffffffffffffffffffffffffffffffff16815260200190815260200160002054836123a0565b600960003373ffffffffffffffffffffffffffffffffffffffff1673ffffffffffffffffffffffffffffffffffffffff16815260200190815260200160002060008573ffffffffffffffffffffffffffffffffffffffff1673ffffffffffffffffffffffffffffffffffffffff168152602001908152602001600020819055508273ffffffffffffffffffffffffffffffffffffffff163373ffffffffffffffffffffffffffffffffffffffff167f8c5be1e5ebec7d5bd14f71427d1e84f3dd0314c0f7b2291e5b200ac8c7c3b925600960003373ffffffffffffffffffffffffffffffffffffffff1673ffffffffffffffffffffffffffffffffffffffff16815260200190815260200160002060008773ffffffffffffffffffffffffffffffffffffffff1673ffffffffffffffffffffffffffffffffffffffff168152602001908152602001600020546040518082815260200191505060405180910390a36001905092915050565b6000600960008473ffffffffffffffffffffffffffffffffffffffff1673ffffffffffffffffffffffffffffffffffffffff16815260200190815260200160002060008373ffffffffffffffffffffffffffffffffffffffff1673ffffffffffffffffffffffffffffffffffffffff16815260200190815260200160002054905092915050565b60008060009054906101000a900473ffffffffffffffffffffffffffffffffffffffff1673ffffffffffffffffffffffffffffffffffffffff163373ffffffffffffffffffffffffffffffffffffffff1614151561226f57600080fd5b600090505b81518110156122aa5761229d828281518110151561228e57fe5b90602001906020020151611a5e565b8080600101915050612274565b5050565b6000809054906101000a900473ffffffffffffffffffffffffffffffffffffffff1673ffffffffffffffffffffffffffffffffffffffff163373ffffffffffffffffffffffffffffffffffffffff1614151561230957600080fd5b61231281612624565b50565b61231f828261232e565b151561232a57600080fd5b5050565b60008260000160008373ffffffffffffffffffffffffffffffffffffffff1673ffffffffffffffffffffffffffffffffffffffff16815260200190815260200160002060009054906101000a900460ff16905092915050565b600082821115151561239557fe5b818303905092915050565b600081830190508281101515156123b357fe5b80905092915050565b612439826001836040518082805190602001908083835b6020831015156123f857805182526020820191506020810190506020830392506123d3565b6001836020036101000a038019825116818451168082178552505050505050905001915050908152602001604051809103902061271e90919063ffffffff16565b8173ffffffffffffffffffffffffffffffffffffffff167fd211483f91fc6eff862467f8de606587a30c8fc9981056f051b897a418df803a826040518080602001828103825283818151815260200191508051906020019080838360005b838110156124b2578082015181840152602081019050612497565b50505050905090810190601f1680156124df5780820380516001836020036101000a031916815260200191505b509250505060405180910390a25050565b61256d826001836040518082805190602001908083835b60208310151561252c5780518252602082019150602081019050602083039250612507565b6001836020036101000a038019825116818451168082178552505050505050905001915050908152602001604051809103902061277c90919063ffffffff16565b8173ffffffffffffffffffffffffffffffffffffffff167fbfec83d64eaa953f2708271a023ab9ee82057f8f3578d548c1a4ba0b5b700489826040518080602001828103825283818151815260200191508051906020019080838360005b838110156125e65780820151818401526020810190506125cb565b50505050905090810190601f1680156126135780820380516001836020036101000a031916815260200191505b509250505060405180910390a25050565b600073ffffffffffffffffffffffffffffffffffffffff168173ffffffffffffffffffffffffffffffffffffffff161415151561266057600080fd5b8073ffffffffffffffffffffffffffffffffffffffff166000809054906101000a900473ffffffffffffffffffffffffffffffffffffffff1673ffffffffffffffffffffffffffffffffffffffff167f8be0079c531659141344cd1fd0a4f28419497f9722a3daafe3b4186f6b6457e060405160405180910390a3806000806101000a81548173ffffffffffffffffffffffffffffffffffffffff021916908373ffffffffffffffffffffffffffffffffffffffff16021790555050565b60008260000160008373ffffffffffffffffffffffffffffffffffffffff1673ffffffffffffffffffffffffffffffffffffffff16815260200190815260200160002060006101000a81548160ff0219169083151502179055505050565b60018260000160008373ffffffffffffffffffffffffffffffffffffffff1673ffffffffffffffffffffffffffffffffffffffff16815260200190815260200160002060006101000a81548160ff0219169083151502179055505050565b828054600181600116156101000203166002900490600052602060002090601f016020900481019282601f1061281b57805160ff1916838001178555612849565b82800160010185558215612849579182015b8281111561284857825182559160200191906001019061282d565b5b509050612856919061285a565b5090565b61287c91905b80821115612878576000816000905550600101612860565b5090565b905600a165627a7a723058204dbca1f70b7b5ca5e8c6656d0d239b22a5b2a89e2970a4f428f44fa35c43c8db0029",
  "source": "pragma solidity ^0.4.24;\n\nimport \"./Whitelist.sol\";\nimport \"./RnetToken.sol\";\n\ncontract TokenAdmin is Whitelist, RnetToken{\n    \n    event addedNewRCE(string message, address _newRCE);\n    event modifiedInitialTokenTransfer(string message, uint oldValue, uint newValue);\n    event modifiedQueryPrice(string message, uint oldValue, uint newValue);\n    \n    uint public initialTokenTransfer = 100;\n    uint public queryPrice = 1;\n    string tokenName = \"RceToken\";\n    string tokenSymbol = \"RCE\";\n    uint8 tokenDecimals= 18;\n    uint tokenInitialAmount = 1000000;\n    function includeNewRCE(address _newRCE) \n        public\n        onlyOwner\n    {\n        addAddressToWhitelist(_newRCE);\n        transfer(_newRCE,initialTokenTransfer);\n        emit addedNewRCE(\"Added new RCE\",_newRCE);\n        \n    }\n    \n    function modifyInitialTokenTransfer(uint _newValue)\n        public\n        onlyOwner\n    {\n        uint oldValue = initialTokenTransfer;\n        initialTokenTransfer = _newValue;\n        emit modifiedInitialTokenTransfer(\"Modified initial token transfer\", oldValue, _newValue);\n    }\n    \n    function modifyQueryPrice(uint _newValue)\n        public\n        onlyOwner\n    {\n        uint oldValue = queryPrice;\n        queryPrice = _newValue;\n        emit modifiedQueryPrice(\"Modified query price\", oldValue, _newValue);\n    }\n}\n",
  "sourcePath": "/Users/cristian/GIT/codigonet/eth/BSLHACK2018/truffleRCE/contracts/TokenAdmin.sol",
  "compiler": {
    "name": "solc",
    "version": "0.4.24+commit.e67f0147.Emscripten.clang"
  },
  "schemaVersion": "2.0.1",
  "updatedAt": "2018-08-04T14:23:20.252Z"
}